{
	"data": {
		"bytecode": {
			"linkReferences": {},
			"object": "6080604052348015600f57600080fd5b5060868061001e6000396000f3fe6080604052348015600f57600080fd5b506004361060285760003560e01c8063264405d414602d575b600080fd5b60336049565b6040518082815260200191505060405180910390f35b60004290509056fea265627a7a72315820a11cb7d517c08d4874412994d4ab145b2b46790362a55451abc798b37bd09ee164736f6c63430005100032",
			"opcodes": "PUSH1 0x80 PUSH1 0x40 MSTORE CALLVALUE DUP1 ISZERO PUSH1 0xF JUMPI PUSH1 0x0 DUP1 REVERT JUMPDEST POP PUSH1 0x86 DUP1 PUSH2 0x1E PUSH1 0x0 CODECOPY PUSH1 0x0 RETURN INVALID PUSH1 0x80 PUSH1 0x40 MSTORE CALLVALUE DUP1 ISZERO PUSH1 0xF JUMPI PUSH1 0x0 DUP1 REVERT JUMPDEST POP PUSH1 0x4 CALLDATASIZE LT PUSH1 0x28 JUMPI PUSH1 0x0 CALLDATALOAD PUSH1 0xE0 SHR DUP1 PUSH4 0x264405D4 EQ PUSH1 0x2D JUMPI JUMPDEST PUSH1 0x0 DUP1 REVERT JUMPDEST PUSH1 0x33 PUSH1 0x49 JUMP JUMPDEST PUSH1 0x40 MLOAD DUP1 DUP3 DUP2 MSTORE PUSH1 0x20 ADD SWAP2 POP POP PUSH1 0x40 MLOAD DUP1 SWAP2 SUB SWAP1 RETURN JUMPDEST PUSH1 0x0 TIMESTAMP SWAP1 POP SWAP1 JUMP INVALID LOG2 PUSH6 0x627A7A723158 KECCAK256 LOG1 SHR 0xB7 0xD5 OR 0xC0 DUP14 0x48 PUSH21 0x412994D4AB145B2B46790362A55451ABC798B37BD0 SWAP15 0xE1 PUSH5 0x736F6C6343 STOP SDIV LT STOP ORIGIN "
		},
		"gasEstimates": {
			"creation": {
				"codeDepositCost": "26800",
				"executionCost": "81",
				"totalCost": "26881"
			},
			"external": {
				"getTimeStamop()": "190"
			}
		},
		"methodIdentifiers": {
			"getTimeStamop()": "264405d4"
		}
	},
	"abi": [
		{
			"constant": true,
			"inputs": [],
			"name": "getTimeStamop",
			"outputs": [
				{
					"internalType": "uint256",
					"name": "",
					"type": "uint256"
				}
			],
			"payable": false,
			"stateMutability": "view",
			"type": "function"
		}
	]
}